{
  "transactions": [
    {
      "hash": "0xef2247d09146c4b7e24b1fc0ea044b0ec1fef41f4fa76431979e20f902e1c1e8",
      "transactionType": "CALL",
      "contractName": null,
      "contractAddress": "0x8103b0a8a00be2ddc778e6e7eaa21791cd364625",
      "function": "createSubscription()",
      "arguments": [],
      "transaction": {
        "from": "0x4590e901091b3add6e99235c02c4bd8f496b2cab",
        "to": "0x8103b0a8a00be2ddc778e6e7eaa21791cd364625",
        "gas": "0x1558c",
        "value": "0x0",
        "input": "0xa21a23e4",
        "nonce": "0x1b",
        "chainId": "0xaa36a7"
      },
      "additionalContracts": [],
      "isFixedGasLimit": false
    },
    {
      "hash": "0x190b5389441fb85b2dcdb9467476811e87813689080a2088b8ceae5ad46e796f",
      "transactionType": "CALL",
      "contractName": null,
      "contractAddress": "0x779877a7b0d9e8603169ddbd7836e478b4624789",
      "function": "transferAndCall(address,uint256,bytes)",
      "arguments": [
        "0x8103B0A8A00be2DDC778e6e7eaa21791Cd364625",
        "3000000000000000000",
        "0x0000000000000000000000000000000000000000000000000000000000002ed5"
      ],
      "transaction": {
        "from": "0x4590e901091b3add6e99235c02c4bd8f496b2cab",
        "to": "0x779877a7b0d9e8603169ddbd7836e478b4624789",
        "gas": "0x1b43f",
        "value": "0x0",
        "input": "0x4000aea00000000000000000000000008103b0a8a00be2ddc778e6e7eaa21791cd36462500000000000000000000000000000000000000000000000029a2241af62c0000000000000000000000000000000000000000000000000000000000000000006000000000000000000000000000000000000000000000000000000000000000200000000000000000000000000000000000000000000000000000000000002ed5",
        "nonce": "0x1c",
        "chainId": "0xaa36a7"
      },
      "additionalContracts": [],
      "isFixedGasLimit": false
    }
  ],
  "receipts": [
    {
      "status": "0x1",
      "cumulativeGasUsed": "0x5d8568",
      "logs": [
        {
          "address": "0x8103b0a8a00be2ddc778e6e7eaa21791cd364625",
          "topics": [
            "0x464722b4166576d3dcbba877b999bc35cf911f4eaf434b7eba68fa113951d0bf",
            "0x0000000000000000000000000000000000000000000000000000000000002ed5"
          ],
          "data": "0x0000000000000000000000004590e901091b3add6e99235c02c4bd8f496b2cab",
          "blockHash": "0x995da6524d7330796454394eab757a491ee31d8c79d4a1af9653384634a2896f",
          "blockNumber": "0x5f2737",
          "transactionHash": "0xef2247d09146c4b7e24b1fc0ea044b0ec1fef41f4fa76431979e20f902e1c1e8",
          "transactionIndex": "0x3b",
          "logIndex": "0x5a",
          "removed": false
        }
      ],
      "logsBloom": "0x0000000000000000000001000000000000000000000000000000000000000000010000000000000000000000000000000000000000000000000000000000000000000000200000000400000000000000000000000000000000000000000000000000000000000000000000000000000000000000000000000000000000000000000000000c000020000000000000000000000000000000000000000000000000000000000000000000000000000000000000000000000000000000000000000000000000000000200000000000000000000000000000000000000000000000000000000000000000000000000000000000008000000000000000000000000000",
      "type": "0x2",
      "transactionHash": "0xef2247d09146c4b7e24b1fc0ea044b0ec1fef41f4fa76431979e20f902e1c1e8",
      "transactionIndex": "0x3b",
      "blockHash": "0x995da6524d7330796454394eab757a491ee31d8c79d4a1af9653384634a2896f",
      "blockNumber": "0x5f2737",
      "gasUsed": "0xe98a",
      "effectiveGasPrice": "0x3be152b56",
      "from": "0x4590e901091b3add6e99235c02c4bd8f496b2cab",
      "to": "0x8103b0a8a00be2ddc778e6e7eaa21791cd364625",
      "contractAddress": null
    },
    {
      "status": "0x1",
      "cumulativeGasUsed": "0x5eafb2",
      "logs": [
        {
          "address": "0x779877a7b0d9e8603169ddbd7836e478b4624789",
          "topics": [
            "0xddf252ad1be2c89b69c2b068fc378daa952ba7f163c4a11628f55a4df523b3ef",
            "0x0000000000000000000000004590e901091b3add6e99235c02c4bd8f496b2cab",
            "0x0000000000000000000000008103b0a8a00be2ddc778e6e7eaa21791cd364625"
          ],
          "data": "0x00000000000000000000000000000000000000000000000029a2241af62c0000",
          "blockHash": "0x995da6524d7330796454394eab757a491ee31d8c79d4a1af9653384634a2896f",
          "blockNumber": "0x5f2737",
          "transactionHash": "0x190b5389441fb85b2dcdb9467476811e87813689080a2088b8ceae5ad46e796f",
          "transactionIndex": "0x3c",
          "logIndex": "0x5b",
          "removed": false
        },
        {
          "address": "0x779877a7b0d9e8603169ddbd7836e478b4624789",
          "topics": [
            "0xe19260aff97b920c7df27010903aeb9c8d2be5d310a2c67824cf3f15396e4c16",
            "0x0000000000000000000000004590e901091b3add6e99235c02c4bd8f496b2cab",
            "0x0000000000000000000000008103b0a8a00be2ddc778e6e7eaa21791cd364625"
          ],
          "data": "0x00000000000000000000000000000000000000000000000029a2241af62c0000000000000000000000000000000000000000000000000000000000000000004000000000000000000000000000000000000000000000000000000000000000200000000000000000000000000000000000000000000000000000000000002ed5",
          "blockHash": "0x995da6524d7330796454394eab757a491ee31d8c79d4a1af9653384634a2896f",
          "blockNumber": "0x5f2737",
          "transactionHash": "0x190b5389441fb85b2dcdb9467476811e87813689080a2088b8ceae5ad46e796f",
          "transactionIndex": "0x3c",
          "logIndex": "0x5c",
          "removed": false
        },
        {
          "address": "0x8103b0a8a00be2ddc778e6e7eaa21791cd364625",
          "topics": [
            "0xd39ec07f4e209f627a4c427971473820dc129761ba28de8906bd56f57101d4f8",
            "0x0000000000000000000000000000000000000000000000000000000000002ed5"
          ],
          "data": "0x000000000000000000000000000000000000000000000000000000000000000000000000000000000000000000000000000000000000000029a2241af62c0000",
          "blockHash": "0x995da6524d7330796454394eab757a491ee31d8c79d4a1af9653384634a2896f",
          "blockNumber": "0x5f2737",
          "transactionHash": "0x190b5389441fb85b2dcdb9467476811e87813689080a2088b8ceae5ad46e796f",
          "transactionIndex": "0x3c",
          "logIndex": "0x5d",
          "removed": false
        }
      ],
      "logsBloom": "0x0000001400000000000000000000000080000000000000020000000002000000000000000000800000000000000000000000000000000000000000000000000000000000200000000400000800000000000000000000000000002000000000000000000000000000000000000000000000000000400000000000001000000000008000000c000020000000000000800010000020000000000000000000000000000000000000000000000000000000000001000000000000000400000000000000000002000000000000000000000000000000000000000100000000000000000000000000000000000000000000000000008000000000000000000000000000",
      "type": "0x2",
      "transactionHash": "0x190b5389441fb85b2dcdb9467476811e87813689080a2088b8ceae5ad46e796f",
      "transactionIndex": "0x3c",
      "blockHash": "0x995da6524d7330796454394eab757a491ee31d8c79d4a1af9653384634a2896f",
      "blockNumber": "0x5f2737",
      "gasUsed": "0x12a4a",
      "effectiveGasPrice": "0x3be152b56",
      "from": "0x4590e901091b3add6e99235c02c4bd8f496b2cab",
      "to": "0x779877a7b0d9e8603169ddbd7836e478b4624789",
      "contractAddress": null
    }
  ],
  "libraries": [],
  "pending": [],
  "returns": {},
  "timestamp": 1719981819,
  "chain": 11155111,
  "commit": "be69f00"
}