{
  "transactions": [
    {
      "hash": "0x4ace77ddfbad148a9a8891276a2725072a7e66a6539c491d4d3fa8cafa08d3d3",
      "transactionType": "CALL",
      "contractName": null,
      "contractAddress": "0x8103b0a8a00be2ddc778e6e7eaa21791cd364625",
      "function": "createSubscription()",
      "arguments": [],
      "transaction": {
        "from": "0xcffae3cdc69ef984bbb6f09d43f8cdedfdd20c46",
        "to": "0x8103b0a8a00be2ddc778e6e7eaa21791cd364625",
        "gas": "0x1558c",
        "value": "0x0",
        "input": "0xa21a23e4",
        "nonce": "0x0",
        "chainId": "0xaa36a7"
      },
      "additionalContracts": [],
      "isFixedGasLimit": false
    },
    {
      "hash": "0x4efbe1c19299abb3d636dbabdfea1c58bb3d64f3ae5648d90cd31f316b58dd0e",
      "transactionType": "CALL",
      "contractName": null,
      "contractAddress": "0x779877a7b0d9e8603169ddbd7836e478b4624789",
      "function": "transferAndCall(address,uint256,bytes)",
      "arguments": [
        "0x8103B0A8A00be2DDC778e6e7eaa21791Cd364625",
        "3000000000000000000",
        "0x0000000000000000000000000000000000000000000000000000000000002edb"
      ],
      "transaction": {
        "from": "0xcffae3cdc69ef984bbb6f09d43f8cdedfdd20c46",
        "to": "0x779877a7b0d9e8603169ddbd7836e478b4624789",
        "gas": "0x1b43f",
        "value": "0x0",
        "input": "0x4000aea00000000000000000000000008103b0a8a00be2ddc778e6e7eaa21791cd36462500000000000000000000000000000000000000000000000029a2241af62c0000000000000000000000000000000000000000000000000000000000000000006000000000000000000000000000000000000000000000000000000000000000200000000000000000000000000000000000000000000000000000000000002edb",
        "nonce": "0x1",
        "chainId": "0xaa36a7"
      },
      "additionalContracts": [],
      "isFixedGasLimit": false
    },
    {
      "hash": "0x7b664e39a6c7a2d6e2a7adf8cb4593ae4c2ea4c42efc5bee86db077e3fcb4676",
      "transactionType": "CREATE",
      "contractName": "Raffle",
      "contractAddress": "0x25674c4d337bf5a93e9b81c0b6e86b7c593646b2",
      "function": null,
      "arguments": [
        "10000000000000000",
        "30",
        "0x8103B0A8A00be2DDC778e6e7eaa21791Cd364625",
        "0x474e34a077df58807dbe9c96d3c009b23b3c6d0cce433e59bbf5b34f823bc56c",
        "11995",
        "500000"
      ],
      "transaction": {
        "from": "0xcffae3cdc69ef984bbb6f09d43f8cdedfdd20c46",
        "gas": "0x191e55",
        "value": "0x0",
        "input": "0x61016060405234801561001157600080fd5b5060405161190138038061190183398181016040528101906100339190610270565b838073ffffffffffffffffffffffffffffffffffffffff1660808173ffffffffffffffffffffffffffffffffffffffff1681525050508560a081815250508460c08181525050426001819055508373ffffffffffffffffffffffffffffffffffffffff1660e08173ffffffffffffffffffffffffffffffffffffffff16815250508261010081815250508167ffffffffffffffff166101208167ffffffffffffffff16815250508063ffffffff166101408163ffffffff16815250506000600260146101000a81548160ff02191690836001811115610115576101146102fd565b5b021790555050505050505061032c565b600080fd5b6000819050919050565b61013d8161012a565b811461014857600080fd5b50565b60008151905061015a81610134565b92915050565b600073ffffffffffffffffffffffffffffffffffffffff82169050919050565b600061018b82610160565b9050919050565b61019b81610180565b81146101a657600080fd5b50565b6000815190506101b881610192565b92915050565b6000819050919050565b6101d1816101be565b81146101dc57600080fd5b50565b6000815190506101ee816101c8565b92915050565b600067ffffffffffffffff82169050919050565b610211816101f4565b811461021c57600080fd5b50565b60008151905061022e81610208565b92915050565b600063ffffffff82169050919050565b61024d81610234565b811461025857600080fd5b50565b60008151905061026a81610244565b92915050565b60008060008060008060c0878903121561028d5761028c610125565b5b600061029b89828a0161014b565b96505060206102ac89828a0161014b565b95505060406102bd89828a016101a9565b94505060606102ce89828a016101df565b93505060806102df89828a0161021f565b92505060a06102f089828a0161025b565b9150509295509295509295565b7f4e487b7100000000000000000000000000000000000000000000000000000000600052602160045260246000fd5b60805160a05160c05160e05161010051610120516101405161155f6103a260003960006106280152600081816105780152610605015260006105e4015260006105a801526000818161049b01526106ba0152600081816101a601526102a30152600081816101e30152610237015261155f6000f3fe6080604052600436106100705760003560e01c80632cfcc5391161004e5780632cfcc539146100f45780634585e33b146100fe5780636e04ff0d14610127578063e55ae4e81461016557610070565b806309bc33a714610075578063115cbaf5146100a05780631fe543e3146100cb575b600080fd5b34801561008157600080fd5b5061008a6101a2565b6040516100979190610c34565b60405180910390f35b3480156100ac57600080fd5b506100b56101ca565b6040516100c29190610cc6565b60405180910390f35b3480156100d757600080fd5b506100f260048036038101906100ed9190610e7a565b6101e1565b005b6100fc6102a1565b005b34801561010a57600080fd5b5061012560048036038101906101209190610f31565b610410565b005b34801561013357600080fd5b5061014e60048036038101906101499190611033565b6106b2565b60405161015c929190611116565b60405180910390f35b34801561017157600080fd5b5061018c60048036038101906101879190611146565b61079b565b60405161019991906111b4565b60405180910390f35b60007f0000000000000000000000000000000000000000000000000000000000000000905090565b6000600260149054906101000a900460ff16905090565b7f000000000000000000000000000000000000000000000000000000000000000073ffffffffffffffffffffffffffffffffffffffff163373ffffffffffffffffffffffffffffffffffffffff161461029357337f00000000000000000000000000000000000000000000000000000000000000006040517f1cf993f400000000000000000000000000000000000000000000000000000000815260040161028a9291906111cf565b60405180910390fd5b61029d82826107e2565b5050565b7f00000000000000000000000000000000000000000000000000000000000000003410156102fb576040517f246b904d00000000000000000000000000000000000000000000000000000000815260040160405180910390fd5b6000600181111561030f5761030e610c4f565b5b600260149054906101000a900460ff16600181111561033157610330610c4f565b5b14610368576040517fd24a271400000000000000000000000000000000000000000000000000000000815260040160405180910390fd5b6000339080600181540180825580915050600190039060005260206000200160009091909190916101000a81548173ffffffffffffffffffffffffffffffffffffffff021916908373ffffffffffffffffffffffffffffffffffffffff1602179055503373ffffffffffffffffffffffffffffffffffffffff167fd78f827cd914f7521fd97ac8d75e9ab6f080fdcbf7b6cd63e599b59233e6106f60405160405180910390a2565b600061042a604051806020016040528060008152506106b2565b509050806104995747600080549050600260149054906101000a900460ff16600181111561045b5761045a610c4f565b5b6040517f584327aa000000000000000000000000000000000000000000000000000000008152600401610490939291906111f8565b60405180910390fd5b7f0000000000000000000000000000000000000000000000000000000000000000600154426104c8919061125e565b10156104d357600080fd5b6001600260146101000a81548160ff021916908360018111156104f9576104f8610c4f565b5b021790555061053d6040518060400160405280600b81526020017f6d73672e73656e6465722000000000000000000000000000000000000000000081525033610a13565b6105a66040518060400160405280600581526020017f73756249640000000000000000000000000000000000000000000000000000008152507f000000000000000000000000000000000000000000000000000000000000000067ffffffffffffffff16610aaf565b7f000000000000000000000000000000000000000000000000000000000000000073ffffffffffffffffffffffffffffffffffffffff16635d3b1d307f00000000000000000000000000000000000000000000000000000000000000007f000000000000000000000000000000000000000000000000000000000000000060037f000000000000000000000000000000000000000000000000000000000000000060016040518663ffffffff1660e01b815260040161066995949392919061130a565b6020604051808303816000875af1158015610688573d6000803e3d6000fd5b505050506040513d601f19601f820116820180604052508101906106ac9190611372565b50505050565b6000606060007f0000000000000000000000000000000000000000000000000000000000000000600154426106e7919061125e565b101590506000806001811115610700576106ff610c4f565b5b600260149054906101000a900460ff16600181111561072257610721610c4f565b5b14905060008047101590506000806000805490501190508380156107435750825b801561074c5750815b80156107555750805b9550856040518060400160405280600381526020017f30783000000000000000000000000000000000000000000000000000000000008152509550955050505050915091565b60008082815481106107b0576107af61139f565b5b9060005260206000200160009054906101000a900473ffffffffffffffffffffffffffffffffffffffff169050919050565b60008080549050826000815181106107fd576107fc61139f565b5b602002602001015161080f91906113fd565b905060008082815481106108265761082561139f565b5b9060005260206000200160009054906101000a900473ffffffffffffffffffffffffffffffffffffffff16905080600260006101000a81548173ffffffffffffffffffffffffffffffffffffffff021916908373ffffffffffffffffffffffffffffffffffffffff1602179055506000600260146101000a81548160ff021916908360018111156108ba576108b9610c4f565b5b0217905550600067ffffffffffffffff8111156108da576108d9610d37565b5b6040519080825280602002602001820160405280156109085781602001602082028036833780820191505090505b506000908051906020019061091e929190610b74565b50426001819055508073ffffffffffffffffffffffffffffffffffffffff167fb112587e57bfa970257f3d54fc52859c6300f6bd7a982462c320fed45c2530ed60405160405180910390a260008173ffffffffffffffffffffffffffffffffffffffff164760405161098f9061145f565b60006040518083038185875af1925050503d80600081146109cc576040519150601f19603f3d011682016040523d82523d6000602084013e6109d1565b606091505b5050905080610a0c576040517fa1d04b3900000000000000000000000000000000000000000000000000000000815260040160405180910390fd5b5050505050565b610aab8282604051602401610a299291906114c9565b6040516020818303038152906040527f319af333000000000000000000000000000000000000000000000000000000007bffffffffffffffffffffffffffffffffffffffffffffffffffffffff19166020820180517bffffffffffffffffffffffffffffffffffffffffffffffffffffffff8381831617835250505050610b4b565b5050565b610b478282604051602401610ac59291906114f9565b6040516020818303038152906040527f9710a9d0000000000000000000000000000000000000000000000000000000007bffffffffffffffffffffffffffffffffffffffffffffffffffffffff19166020820180517bffffffffffffffffffffffffffffffffffffffffffffffffffffffff8381831617835250505050610b4b565b5050565b60008151905060006a636f6e736f6c652e6c6f679050602083016000808483855afa5050505050565b828054828255906000526020600020908101928215610bed579160200282015b82811115610bec5782518260006101000a81548173ffffffffffffffffffffffffffffffffffffffff021916908373ffffffffffffffffffffffffffffffffffffffff16021790555091602001919060010190610b94565b5b509050610bfa9190610bfe565b5090565b5b80821115610c17576000816000905550600101610bff565b5090565b6000819050919050565b610c2e81610c1b565b82525050565b6000602082019050610c496000830184610c25565b92915050565b7f4e487b7100000000000000000000000000000000000000000000000000000000600052602160045260246000fd5b60028110610c8f57610c8e610c4f565b5b50565b6000819050610ca082610c7e565b919050565b6000610cb082610c92565b9050919050565b610cc081610ca5565b82525050565b6000602082019050610cdb6000830184610cb7565b92915050565b6000604051905090565b600080fd5b600080fd5b610cfe81610c1b565b8114610d0957600080fd5b50565b600081359050610d1b81610cf5565b92915050565b600080fd5b6000601f19601f8301169050919050565b7f4e487b7100000000000000000000000000000000000000000000000000000000600052604160045260246000fd5b610d6f82610d26565b810181811067ffffffffffffffff82111715610d8e57610d8d610d37565b5b80604052505050565b6000610da1610ce1565b9050610dad8282610d66565b919050565b600067ffffffffffffffff821115610dcd57610dcc610d37565b5b602082029050602081019050919050565b600080fd5b6000610df6610df184610db2565b610d97565b90508083825260208201905060208402830185811115610e1957610e18610dde565b5b835b81811015610e425780610e2e8882610d0c565b845260208401935050602081019050610e1b565b5050509392505050565b600082601f830112610e6157610e60610d21565b5b8135610e71848260208601610de3565b91505092915050565b60008060408385031215610e9157610e90610ceb565b5b6000610e9f85828601610d0c565b925050602083013567ffffffffffffffff811115610ec057610ebf610cf0565b5b610ecc85828601610e4c565b9150509250929050565b600080fd5b60008083601f840112610ef157610ef0610d21565b5b8235905067ffffffffffffffff811115610f0e57610f0d610ed6565b5b602083019150836001820283011115610f2a57610f29610dde565b5b9250929050565b60008060208385031215610f4857610f47610ceb565b5b600083013567ffffffffffffffff811115610f6657610f65610cf0565b5b610f7285828601610edb565b92509250509250929050565b600080fd5b600067ffffffffffffffff821115610f9e57610f9d610d37565b5b610fa782610d26565b9050602081019050919050565b82818337600083830152505050565b6000610fd6610fd184610f83565b610d97565b905082815260208101848484011115610ff257610ff1610f7e565b5b610ffd848285610fb4565b509392505050565b600082601f83011261101a57611019610d21565b5b813561102a848260208601610fc3565b91505092915050565b60006020828403121561104957611048610ceb565b5b600082013567ffffffffffffffff81111561106757611066610cf0565b5b61107384828501611005565b91505092915050565b60008115159050919050565b6110918161107c565b82525050565b600081519050919050565b600082825260208201905092915050565b60005b838110156110d15780820151818401526020810190506110b6565b60008484015250505050565b60006110e882611097565b6110f281856110a2565b93506111028185602086016110b3565b61110b81610d26565b840191505092915050565b600060408201905061112b6000830185611088565b818103602083015261113d81846110dd565b90509392505050565b60006020828403121561115c5761115b610ceb565b5b600061116a84828501610d0c565b91505092915050565b600073ffffffffffffffffffffffffffffffffffffffff82169050919050565b600061119e82611173565b9050919050565b6111ae81611193565b82525050565b60006020820190506111c960008301846111a5565b92915050565b60006040820190506111e460008301856111a5565b6111f160208301846111a5565b9392505050565b600060608201905061120d6000830186610c25565b61121a6020830185610c25565b6112276040830184610c25565b949350505050565b7f4e487b7100000000000000000000000000000000000000000000000000000000600052601160045260246000fd5b600061126982610c1b565b915061127483610c1b565b925082820390508181111561128c5761128b61122f565b5b92915050565b6000819050919050565b6112a581611292565b82525050565b600067ffffffffffffffff82169050919050565b6112c8816112ab565b82525050565b600061ffff82169050919050565b6112e5816112ce565b82525050565b600063ffffffff82169050919050565b611304816112eb565b82525050565b600060a08201905061131f600083018861129c565b61132c60208301876112bf565b61133960408301866112dc565b61134660608301856112fb565b61135360808301846112fb565b9695505050505050565b60008151905061136c81610cf5565b92915050565b60006020828403121561138857611387610ceb565b5b60006113968482850161135d565b91505092915050565b7f4e487b7100000000000000000000000000000000000000000000000000000000600052603260045260246000fd5b7f4e487b7100000000000000000000000000000000000000000000000000000000600052601260045260246000fd5b600061140882610c1b565b915061141383610c1b565b925082611423576114226113ce565b5b828206905092915050565b600081905092915050565b50565b600061144960008361142e565b915061145482611439565b600082019050919050565b600061146a8261143c565b9150819050919050565b600081519050919050565b600082825260208201905092915050565b600061149b82611474565b6114a5818561147f565b93506114b58185602086016110b3565b6114be81610d26565b840191505092915050565b600060408201905081810360008301526114e38185611490565b90506114f260208301846111a5565b9392505050565b600060408201905081810360008301526115138185611490565b90506115226020830184610c25565b939250505056fea2646970667358221220fbb351e70ba28a5112b61e3eeeb06d6384ad07eec44cc09e04df1ebb22ce1cf364736f6c63430008190033000000000000000000000000000000000000000000000000002386f26fc10000000000000000000000000000000000000000000000000000000000000000001e0000000000000000000000008103b0a8a00be2ddc778e6e7eaa21791cd364625474e34a077df58807dbe9c96d3c009b23b3c6d0cce433e59bbf5b34f823bc56c0000000000000000000000000000000000000000000000000000000000002edb000000000000000000000000000000000000000000000000000000000007a120",
        "nonce": "0x2",
        "chainId": "0xaa36a7"
      },
      "additionalContracts": [],
      "isFixedGasLimit": false
    },
    {
      "hash": "0x80f13bb9bb2f0d7f5feeab6b005971dcd5984862bf4c7f82241435e1a1304093",
      "transactionType": "CALL",
      "contractName": null,
      "contractAddress": "0x8103b0a8a00be2ddc778e6e7eaa21791cd364625",
      "function": "addConsumer(uint64,address)",
      "arguments": [
        "11995",
        "0x25674C4D337bF5A93e9b81c0B6e86b7C593646B2"
      ],
      "transaction": {
        "from": "0xcffae3cdc69ef984bbb6f09d43f8cdedfdd20c46",
        "to": "0x8103b0a8a00be2ddc778e6e7eaa21791cd364625",
        "gas": "0x21eb0",
        "value": "0x0",
        "input": "0x7341c10c0000000000000000000000000000000000000000000000000000000000002edb00000000000000000000000025674c4d337bf5a93e9b81c0b6e86b7c593646b2",
        "nonce": "0x3",
        "chainId": "0xaa36a7"
      },
      "additionalContracts": [],
      "isFixedGasLimit": false
    }
  ],
  "receipts": [
    {
      "status": "0x1",
      "cumulativeGasUsed": "0xa7d70d",
      "logs": [
        {
          "address": "0x8103b0a8a00be2ddc778e6e7eaa21791cd364625",
          "topics": [
            "0x464722b4166576d3dcbba877b999bc35cf911f4eaf434b7eba68fa113951d0bf",
            "0x0000000000000000000000000000000000000000000000000000000000002edb"
          ],
          "data": "0x000000000000000000000000cffae3cdc69ef984bbb6f09d43f8cdedfdd20c46",
          "blockHash": "0xeed15d2b07c2af0a3c9aa8f35bb124c3cc5a96783aabe64a99eb72cd0eb433e9",
          "blockNumber": "0x5f2d93",
          "transactionHash": "0x4ace77ddfbad148a9a8891276a2725072a7e66a6539c491d4d3fa8cafa08d3d3",
          "transactionIndex": "0x58",
          "logIndex": "0x9e",
          "removed": false
        }
      ],
      "logsBloom": "0x0000000000000000000001000000000000000000000000000004000000000000010000000000000000000000000000000000000000000000000000000000040000000000000000000000000000000000000000000000000000000000000000000000000000000000000000000000000000000000000000000000000000000000000000000c000020000000000000000000000000000000000000000000000000000000000000000000000000000000000000000000000000000000000000000000000000000000200000000000000000000000000000000000000000000000000000000000000000000000000000000000000000008000000000000000000000",
      "type": "0x2",
      "transactionHash": "0x4ace77ddfbad148a9a8891276a2725072a7e66a6539c491d4d3fa8cafa08d3d3",
      "transactionIndex": "0x58",
      "blockHash": "0xeed15d2b07c2af0a3c9aa8f35bb124c3cc5a96783aabe64a99eb72cd0eb433e9",
      "blockNumber": "0x5f2d93",
      "gasUsed": "0xe98a",
      "effectiveGasPrice": "0x542926316",
      "from": "0xcffae3cdc69ef984bbb6f09d43f8cdedfdd20c46",
      "to": "0x8103b0a8a00be2ddc778e6e7eaa21791cd364625",
      "contractAddress": null
    },
    {
      "status": "0x1",
      "cumulativeGasUsed": "0xa90157",
      "logs": [
        {
          "address": "0x779877a7b0d9e8603169ddbd7836e478b4624789",
          "topics": [
            "0xddf252ad1be2c89b69c2b068fc378daa952ba7f163c4a11628f55a4df523b3ef",
            "0x000000000000000000000000cffae3cdc69ef984bbb6f09d43f8cdedfdd20c46",
            "0x0000000000000000000000008103b0a8a00be2ddc778e6e7eaa21791cd364625"
          ],
          "data": "0x00000000000000000000000000000000000000000000000029a2241af62c0000",
          "blockHash": "0xeed15d2b07c2af0a3c9aa8f35bb124c3cc5a96783aabe64a99eb72cd0eb433e9",
          "blockNumber": "0x5f2d93",
          "transactionHash": "0x4efbe1c19299abb3d636dbabdfea1c58bb3d64f3ae5648d90cd31f316b58dd0e",
          "transactionIndex": "0x59",
          "logIndex": "0x9f",
          "removed": false
        },
        {
          "address": "0x779877a7b0d9e8603169ddbd7836e478b4624789",
          "topics": [
            "0xe19260aff97b920c7df27010903aeb9c8d2be5d310a2c67824cf3f15396e4c16",
            "0x000000000000000000000000cffae3cdc69ef984bbb6f09d43f8cdedfdd20c46",
            "0x0000000000000000000000008103b0a8a00be2ddc778e6e7eaa21791cd364625"
          ],
          "data": "0x00000000000000000000000000000000000000000000000029a2241af62c0000000000000000000000000000000000000000000000000000000000000000004000000000000000000000000000000000000000000000000000000000000000200000000000000000000000000000000000000000000000000000000000002edb",
          "blockHash": "0xeed15d2b07c2af0a3c9aa8f35bb124c3cc5a96783aabe64a99eb72cd0eb433e9",
          "blockNumber": "0x5f2d93",
          "transactionHash": "0x4efbe1c19299abb3d636dbabdfea1c58bb3d64f3ae5648d90cd31f316b58dd0e",
          "transactionIndex": "0x59",
          "logIndex": "0xa0",
          "removed": false
        },
        {
          "address": "0x8103b0a8a00be2ddc778e6e7eaa21791cd364625",
          "topics": [
            "0xd39ec07f4e209f627a4c427971473820dc129761ba28de8906bd56f57101d4f8",
            "0x0000000000000000000000000000000000000000000000000000000000002edb"
          ],
          "data": "0x000000000000000000000000000000000000000000000000000000000000000000000000000000000000000000000000000000000000000029a2241af62c0000",
          "blockHash": "0xeed15d2b07c2af0a3c9aa8f35bb124c3cc5a96783aabe64a99eb72cd0eb433e9",
          "blockNumber": "0x5f2d93",
          "transactionHash": "0x4efbe1c19299abb3d636dbabdfea1c58bb3d64f3ae5648d90cd31f316b58dd0e",
          "transactionIndex": "0x59",
          "logIndex": "0xa1",
          "removed": false
        }
      ],
      "logsBloom": "0x0000001400000000000000000000000000000000000000020004000002000000000000000000800008000000000000000000000000000000000000000000040000000000000000000000000800000000000000000000000000002000000000000000000000000000000000000000000000000000400000000000001000000000000000000c000020000000200000800010000020000000000000000000000000000000000000000000000000000000000000000000000000000400000000000000000002000000000000000000000000000000000000000100000000000000000000000000000000400000000000000000000000008000000000000000000000",
      "type": "0x2",
      "transactionHash": "0x4efbe1c19299abb3d636dbabdfea1c58bb3d64f3ae5648d90cd31f316b58dd0e",
      "transactionIndex": "0x59",
      "blockHash": "0xeed15d2b07c2af0a3c9aa8f35bb124c3cc5a96783aabe64a99eb72cd0eb433e9",
      "blockNumber": "0x5f2d93",
      "gasUsed": "0x12a4a",
      "effectiveGasPrice": "0x542926316",
      "from": "0xcffae3cdc69ef984bbb6f09d43f8cdedfdd20c46",
      "to": "0x779877a7b0d9e8603169ddbd7836e478b4624789",
      "contractAddress": null
    },
    {
      "status": "0x1",
      "cumulativeGasUsed": "0xbc555e",
      "logs": [],
      "logsBloom": "0x00000000000000000000000000000000000000000000000000000000000000000000000000000000000000000000000000000000000000000000000000000000000000000000000000000000000000000000000000000000000000000000000000000000000000000000000000000000000000000000000000000000000000000000000000000000000000000000000000000000000000000000000000000000000000000000000000000000000000000000000000000000000000000000000000000000000000000000000000000000000000000000000000000000000000000000000000000000000000000000000000000000000000000000000000000000",
      "type": "0x2",
      "transactionHash": "0x7b664e39a6c7a2d6e2a7adf8cb4593ae4c2ea4c42efc5bee86db077e3fcb4676",
      "transactionIndex": "0x5a",
      "blockHash": "0xeed15d2b07c2af0a3c9aa8f35bb124c3cc5a96783aabe64a99eb72cd0eb433e9",
      "blockNumber": "0x5f2d93",
      "gasUsed": "0x135407",
      "effectiveGasPrice": "0x542926316",
      "from": "0xcffae3cdc69ef984bbb6f09d43f8cdedfdd20c46",
      "to": null,
      "contractAddress": "0x25674c4d337bf5a93e9b81c0b6e86b7c593646b2"
    },
    {
      "status": "0x1",
      "cumulativeGasUsed": "0xbdc870",
      "logs": [
        {
          "address": "0x8103b0a8a00be2ddc778e6e7eaa21791cd364625",
          "topics": [
            "0x43dc749a04ac8fb825cbd514f7c0e13f13bc6f2ee66043b76629d51776cff8e0",
            "0x0000000000000000000000000000000000000000000000000000000000002edb"
          ],
          "data": "0x00000000000000000000000025674c4d337bf5a93e9b81c0b6e86b7c593646b2",
          "blockHash": "0xeed15d2b07c2af0a3c9aa8f35bb124c3cc5a96783aabe64a99eb72cd0eb433e9",
          "blockNumber": "0x5f2d93",
          "transactionHash": "0x80f13bb9bb2f0d7f5feeab6b005971dcd5984862bf4c7f82241435e1a1304093",
          "transactionIndex": "0x5b",
          "logIndex": "0xa2",
          "removed": false
        }
      ],
      "logsBloom": "0x0000000000000000000000000000000000000000000000000004000000000000000000000000000000000000000000000000000000000000000000000000040000000000000000000000000000000000000000000000000000000000000000000000000000008000000000000000000000000000000000000000000000000000000000000c000020000000000000000000000000000000000000000000000000000000000000000000000080000000000000000000000000000000000000000000000000000000000000000000000000000000000000000000020000000000000000000000000000000000000000000000000000008000000000000000000000",
      "type": "0x2",
      "transactionHash": "0x80f13bb9bb2f0d7f5feeab6b005971dcd5984862bf4c7f82241435e1a1304093",
      "transactionIndex": "0x5b",
      "blockHash": "0xeed15d2b07c2af0a3c9aa8f35bb124c3cc5a96783aabe64a99eb72cd0eb433e9",
      "blockNumber": "0x5f2d93",
      "gasUsed": "0x17312",
      "effectiveGasPrice": "0x542926316",
      "from": "0xcffae3cdc69ef984bbb6f09d43f8cdedfdd20c46",
      "to": "0x8103b0a8a00be2ddc778e6e7eaa21791cd364625",
      "contractAddress": null
    }
  ],
  "libraries": [],
  "pending": [],
  "returns": {
    "0": {
      "internal_type": "contract Raffle",
      "value": "0x25674C4D337bF5A93e9b81c0B6e86b7C593646B2"
    },
    "1": {
      "internal_type": "contract HelperConfig",
      "value": "0xC7f2Cf4845C6db0e1a1e91ED41Bcd0FcC1b0E141"
    }
  },
  "timestamp": 1720004705,
  "chain": 11155111,
  "commit": "f1fd843"
}